:020000040800F2
:1000000000500020F50400085503000857030008BD
:10001000590300085B0300085D03000800000000AE
:100020000000000000000000000000005F03000866
:100030006103000800000000630300086503000876
:100040003D0500083D0500083D0500083D05000888
:100050003D0500083D0500083D0500083D05000878
:100060003D0500083D0500083D0500083D05000868
:100070003D0500083D0500083D0500083D05000858
:100080003D0500083D0500083D0500083D05000848
:100090003D0500083D0500083D0500083D05000838
:1000A0003D0500083D0500083D0500083D05000828
:1000B0003D0500083D0500083D0500083D05000818
:1000C0003D0500083D0500083D0500083D05000808
:1000D0003D0500083D0500083D0500083D050008F8
:1000E0003D0500083D0500083D0500080000000032
:1000F0000000000000000000000000000000000000
:0C01000000000000000000005FF808F1A3
:10010C000348044B834202D0034B03B1184770479A
:10011C000400002004000020000000000548064BED
:10012C001B1AD90F01EBA301491002D0034B03B1E9
:10013C001847704704000020040000200000000055
:10014C0010B5064C237843B9FFF7DAFF044B13B113
:10015C000448AFF300800123237010BD040000207D
:10016C00000000008805000808B5054B1BB10549C7
:10017C000548AFF30080BDE80840FFF7CFBF00BFD4
:10018C0000000000080000208805000800B500F001
:10019C000700A0F1030CBCF1040F07D8C0F1070E47
:1001AC000430062806D84FF0000C03E04FF0040E84
:1001BC004FF0000C4FF0FF3303FA0EF021EA000170
:1001CC0001FA0CF103FA0CF322EA030241EA0200F1
:1001DC0000BD000000B589B003A9002303934B6058
:1001EC008B60CB600B6103F1804303F504339A6998
:1001FC0042F010029A619A6902F010020292029A7D
:10020C009A6942F020029A619B6903F020030193E2
:10021C00019B07484FF400534361064B03930123A2
:10022C0004930223059300F0E6F809B000BD00BF6B
:10023C00001001402000200410B51A4A136823F066
:10024C0007031360174B1B6813F0070FFAD1164AFC
:10025C00136843F480331360134B1B6813F4003F93
:10026C00FAD0114B5A6822F0F0025A605A6822F404
:10027C00E0625A605A6822F460525A605A6822F05E
:10028C00030242F001025A60074B5B6803F00C0357
:10029C00042BF9D1054C204600F0F8F8204600F06C
:1002AC001BF910BD002002400010024000127A0021
:1002BC0000B583B01F4B9A6942F001029A619A69AA
:1002CC0002F001020192019ADA6942F08052DA617D
:1002DC00DB6903F080530093009B174CE26822F417
:1002EC00E0621204120C154B1343E360E068002229
:1002FC000F21C0F30220FFF749FF0301DBB284F8A2
:10030C0023300F4A536823F0E06343F0806353605B
:10031C00FFF792FFFFF75EFF0A49CB681A0402F061
:10032C000052DB4303F4005313430B61642000F0D1
:10033C00BDF8F1E70010024000ED00E00003FA0503
:10034C000000014000100140FEE7FEE7FEE7FEE77B
:10035C00FEE7704770477047704700B54FEA116E63
:10036C0091FAA1FCBCFA8CFC4FEA8C0C0F2303FA1B
:10037C000CFC50F80E3023EA0C0391FAA1F1B1FAFF
:10038C0081F189008A40134340F80E3000BD00B55E
:10039C004FEA116E91FAA1FCBCFA8CFC4FEA8C0C62
:1003AC00032303FA0CFC50F80E3023EA0C0391FAE9
:1003BC00A1F1B1FA81F189008A40134340F80E3063
:1003CC0000BD00B54FEA116E91FAA1FCBCFA8CFC91
:1003DC004FEA8C0C042303FA0CFC50F80E3023EA81
:1003EC000C0391FAA1F1B1FA81F189008A4013430F
:1003FC0040F80E3000BD2DE9F04180460E460F68E6
:10040C00C7F30F2797FAA7F4B4FA84F414E0A4F115
:10041C0008034FF001159D4045F080657368082B6B
:10042C0017D0726829464046FFF797FF7368012B77
:10043C001ED0092B1CD0013437FA04F323D001232E
:10044C00A3403B42F7D0072CE1D840F20115A54060
:10045C00E4E73269D8F80C102B0A21EA152193FA3B
:10046C00A3F3B3FA83F39A400A43C8F80C20D8E7F5
:10047C00B26829464046FFF78AFFF2682946404693
:10048C00FFF79FFFD7E70020BDE8F081064BA3FBE9
:10049C0000239B09013B4FF0E02253610023936141
:1004AC0005231361704700BFD34D621082B04FF02B
:1004BC00E0231B690193019BB0F1FF3F00D0013099
:1004CC0038B14FF0E0231B6913F4803FF8D00138AA
:1004DC00F6E702B070470000014B1860704700BF90
:1004EC000000002070470000FFF7FCFF0B480C4990
:1004FC000C4A002302E0D458C4500433C4188C4274
:10050C00F9D3094A094C002301E013600432A242DA
:10051C00FBD300F00FF8FFF7CBFE70470000002074
:10052C0004000020A8050008040000202000002082
:10053C00FEE7000070B500260C4C0D4B1D1BB6EBF6
:10054C00A50F09D1002600F019F80A4C0A4B1D1B07
:10055C00B6EBA50F05D170BD54F8043B9847013696
:10056C00EDE754F8043B98470136F1E7A005000885
:10057C00A0050008A0050008A4050008F8B500BFF8
:10058C00F8BC08BC9E467047F8B500BFF8BC08BC68
:04059C009E467047C0
:0405A00075010008D9
:0405A4004D010008FD
:0405A80000127A00C3
:04000005080004F5F6
:00000001FF
