:020000040800F2
:1000000000500020710A0008F9020008FB020008F5
:10001000FD020008FF0200080103000800000000C4
:1000200000000000000000000000000003030008C2
:10003000050300080000000007030008090300088A
:10004000B90A0008B90A0008B90A0008B90A000884
:10005000B90A0008B90A0008B90A0008B90A000874
:10006000B90A0008B90A0008B90A0008B90A000864
:10007000B90A0008B90A0008B90A0008B90A000854
:10008000B90A0008B90A0008B90A0008B90A000844
:10009000B90A0008B90A0008B90A0008B90A000834
:1000A000B90A0008B90A0008B90A0008B90A000824
:1000B000B90A0008B90A0008B90A0008B90A000814
:1000C000B90A0008B90A0008B90A0008B90A000804
:1000D000B90A0008B90A0008B90A0008B90A0008F4
:1000E000B90A0008B90A0008B90A000800000000AF
:1000F0000000000000000000000000000000000000
:0C01000000000000000000005FF808F1A3
:10010C000348044B834202D0034B03B1184770479A
:10011C000C0000200C000020000000000548064BDD
:10012C001B1AD90F01EBA301491002D0034B03B1E9
:10013C00184770470C0000200C0000200000000045
:10014C0010B5064C237843B9FFF7DAFF044B13B113
:10015C000448AFF300800123237010BD0C00002075
:10016C0000000000040B000808B5054B1BB1054945
:10017C000548AFF30080BDE80840FFF7CFBF00BFD4
:10018C000000000010000020040B000800B589B02E
:10019C0003A9002303934B608B60CB600B6103F1CD
:1001AC00804303F504339A6942F010029A619A690C
:1001BC0002F010020292029A9A6942F020029A61AD
:1001CC009A6902F020020192019A9A6942F008029F
:1001DC009A619B6903F008030093009B06484FF457
:1001EC0000534361054B03930123049302230593AE
:1001FC0000F0D6F809B000BD00100140200020042A
:10020C0072B6FEE708B50A480A4B03600A4B436016
:10021C0000238360C3604FF48042026143618361B9
:10022C00C361036200F078F900B908BDFFF7E8FF7D
:10023C002800002000540040A086010008B51B4A8D
:10024C00136823F007031360184B1B6813F0070F98
:10025C00FAD1174A136843F480331360144B1B68AC
:10026C0013F4003FFAD0124B5A6822F0F0025A6095
:10027C005A6822F4E0625A605A6822F460525A605A
:10028C005A6822F0030242F001025A60084B5B6884
:10029C0003F00C03042BF9D1064800F0E1F80F2011
:1002AC0000F026FA00B908BDFFF7AAFF00200240B3
:1002BC000010024000127A0008B500F03FFAFFF778
:1002CC00BDFFFFF763FFFFF79DFF0749CB681A04DB
:1002DC0002F00052DB4303F4005313430B61642020
:1002EC0000F0A9F8F1E700BF00100140FEE7FEE7BF
:1002FC00FEE7FEE7FEE770477047704708B500F071
:10030C002FFA08BD00B54FEA116E91FAA1FCBCFAA8
:10031C008CFC4FEA8C0C0F2303FA0CFC50F80E30BB
:10032C0023EA0C0391FAA1F1B1FA81F189008A4018
:10033C00134340F80E3000BD00B54FEA116E91FA30
:10034C00A1FCBCFA8CFC4FEA8C0C032303FA0CFCCA
:10035C0050F80E3023EA0C0391FAA1F1B1FA81F1B5
:10036C0089008A40134340F80E3000BD00B54FEAB7
:10037C00116E91FAA1FCBCFA8CFC4FEA8C0C042394
:10038C0003FA0CFC50F80E3023EA0C0391FAA1F19D
:10039C00B1FA81F189008A40134340F80E3000BD58
:1003AC002DE9F04180460E460F68C7F30F2797FAE8
:1003BC00A7F4B4FA84F414E0A4F108034FF0011587
:1003CC009D4045F080657368082B17D072682946EC
:1003DC004046FFF797FF7368012B1ED0092B1CD0EA
:1003EC00013437FA04F323D00123A3403B42F7D066
:1003FC00072CE1D840F20115A540E4E73269D8F8A2
:10040C000C102B0A21EA152193FAA3F3B3FA83F308
:10041C009A400A43C8F80C20D8E7B26829464046EF
:10042C00FFF78AFFF26829464046FFF79FFFD7E7A0
:10043C000020BDE8F08182B04FF0E0231B690193EE
:10044C00019BB0F1FF3F00D0013038B14FF0E023F9
:10045C001B6913F4803FF8D00138F6E702B07047FF
:10046C00014B1860704700BF00000020704700006F
:10047C0082B00E4B9A6942F001029A619A6902F0BD
:10048C0001020092009ADA6942F08052DA61DB696B
:10049C0003F080530193019B054A536823F0E063FA
:1004AC0043F08063536002B0704700BF00100240FD
:1004BC000000014010B586B000230293039304930F
:1004CC0005930268114B9A4201D006B010BD104C36
:1004DC00A36943F00803A361A36903F00803009325
:1004EC00009BC0230293122303930323059302A9B9
:1004FC00084800F057F9E36943F40013E361E3693A
:10050C0003F400130193019BDFE700BF005400408C
:10051C0000100240000C0140002800F0DB8038B5D0
:10052C00044690F83D30002B52D0242384F83D3003
:10053C002268136823F0010313602268136843F4E4
:10054C00004313602268136823F40043136000F027
:10055C0019F96268614B9A423FD8614B98428CBF43
:10056C0000230123002B40F0B7805E49A1FB003132
:10057C008B0CD4F800C0DCF8042022F03F0242EAD5
:10058C009142CCF8042021680A6A22F03F02DFF87D
:10059C004CC1D4F804E0E64525D8013313430B6273
:1005AC002168CA6922F44F4222F0FF02D4F804C039
:1005BC004A4B9C4522D8431E4FEA4C0CB3FBFCF330
:1005CC00013340F6FC70034254D0C3F30B0352E0EA
:1005DC0080F83C30FFF76EFFA7E7434B98428CBF87
:1005EC0000230123BEE74FF4967C0CFB03F3DFF8EA
:1005FC00FCC0ACFB03C39B090133CFE7D4F808E084
:10060C00BEF1000F1AD1431E0CEB4C05B3FBF5F3F6
:10061C000133C3F30B03B3FA83F35B09002B57D1FC
:10062C00BEF1000F19D1431E0CEB4C0CB3FBFCF3C9
:10063C000133C3F30B0343F400431CE00CEB8C03BA
:10064C0003EB83031D46431EB3FBF5F30133C3F3E6
:10065C000B03B3FA83F35B09E0E7431E0CEB8C0C42
:10066C000CEB8C0CB3FBFCF30133C3F30B0343F423
:10067C00404300E004231A43CA6121680B6823F04D
:10068C00C003E269206A024313430B6021688B6844
:10069C0023F4034323F0FF032269E068024313436E
:1006AC008B602168CB6823F0FF036269A069024369
:1006BC001343CB602268136843F0010313600020DE
:1006CC002064202384F83D30206384F83E0038BD3C
:1006DC000123D0E7012070470120F8E7A086010034
:1006EC007F841E0083DE1B43FF083D00D34D621048
:1006FC0010B504460E4B18680E4B1A784FF47A73EB
:10070C00B3FBF2F3B0FBF3F000F098F968B90F2CDF
:10071C0001D901200AE0024621464FF0FF3000F0DB
:10072C007DF9054B1C60002000E0012010BD00BFCE
:10073C0000000020040000200800002008B5074A33
:10074C00136843F010031360032000F055F90F20D9
:10075C00FFF7CEFFFFF78CFE002008BD0020024003
:10076C00034A1168034B1B780B441360704700BF9E
:10077C007C00002004000020014B1868704700BF6B
:10078C000000002008B5FFF7F7FF044B5B68C3F3CC
:10079C000223034AD35CD84008BD00BF00100240BE
:1007AC001C0B000870B582B04FF0000EF446A4E0AC
:1007BC00012B28D0022B03D1CB6803F1080E24E0C7
:1007CC001BBB8B68002B65D0012B5CD042614FF0BA
:1007DC00080E1AE0664DAB42F3D00CD8A5F5801587
:1007EC00AB42EED005F57025AB42EAD0A5F58015ED
:1007FC00AB42E6D009E05F4DAB42E2D005F5803567
:10080C00AB42DED001E0D1F80CE0FF2C45D8064617
:10081C004FEA8C0233680F25954023EA05030EFA44
:10082C0002F2134333604B6813F0805F63D0524B7A
:10083C009A6942F001029A619B6903F001030193EA
:10084C00019B4FEA9C02951C4C4B53F825600CF015
:10085C000305AD000F23AB4026EA0306484B984234
:10086C0022D003F58063984263D003F580639842ED
:10087C0061D003F58063984214D0042315E0CB6853
:10088C0003F10C0EC1E702614FF0080EBDE74FF00B
:10089C00000EBAE74FF0040EB7E7061DACF10802E4
:1008AC009200B7E7032300E00023AB40334302324E
:1008BC00324D45F822304B6813F4801F3DD0314A3D
:1008CC009368234393604B6813F4001F3BD02D4A6D
:1008DC00D3682343D3604B6813F4003F39D0294AC3
:1008EC005368234353604B6813F4803F37D0254A39
:1008FC001368234313600CF1010C0B6833FA0CF2F0
:10090C0033D0012202FA0CF203EA020432EA0303A6
:10091C00F1D14B68032BBAD07FF64AAF122BAED075
:10092C003FF658AF112B7FF470AFCB6803F1040E78
:10093C006BE70123B9E70223B7E7124A936823EA6E
:10094C0004039360BFE70F4AD36823EA0403D36020
:10095C00C1E70C4A536823EA04035360C3E7094A0E
:10096C00136823EA04031360C5E702B070BD00BF2F
:10097C000000221000003110001002400000014065
:10098C000008014000040140002808DB0901C9B23D
:10099C0000F1604000F5614080F80013704700F0F2
:1009AC000F000901C9B2014B1954704714ED00E056
:1009BC0000B500F00700A0F1030CBCF1040F07D840
:1009CC00C0F1070E0430062806D84FF0000C03E0E7
:1009DC004FF0040E4FF0000C4FF0FF3303FA0EF003
:1009EC0021EA000101FA0CF103FA0CF322EA0302EA
:1009FC0041EA020000BD0000074AD36823F4E0631B
:100A0C001B041B0C000200F4E060034343F0BF63C3
:100A1C0043F40033D360704700ED00E010B504469A
:100A2C00054BD868C0F30220FFF7C2FF01462046F1
:100A3C00FFF7AAFF10BD00BF00ED00E00138B0F1D8
:100A4C00807F0BD24FF0E0235861054AF02182F8E9
:100A5C0023100020986107221A617047012070470B
:100A6C0000ED00E0FFF702FD0B480C490C4A002397
:100A7C0002E0D458C4500433C4188C42F9D3094A48
:100A8C00094C002301E013600432A242FBD300F0B6
:100A9C000FF8FFF711FC7047000000200C0000203D
:100AAC002C0B00080C00002080000020FEE700004A
:100ABC0070B500260C4C0D4B1D1BB6EBA50F09D1C8
:100ACC00002600F019F80A4C0A4B1D1BB6EBA50FBB
:100ADC0005D170BD54F8043B98470136EDE754F846
:100AEC00043B98470136F1E7240B0008240B00085F
:100AFC00240B0008280B0008F8B500BFF8BC08BC94
:100B0C009E467047F8B500BFF8BC08BC9E467047BF
:080B1C000000000001020304C7
:040B2400750100084F
:040B28004D01000873
:0C0B2C0000127A00010000001000000020
:0400000508000A7174
:00000001FF
